{
  "contractName": "Dogs",
  "abi": [
    {
      "constant": true,
      "inputs": [],
      "name": "_initialized",
      "outputs": [
        {
          "name": "",
          "type": "bool"
        }
      ],
      "payable": false,
      "stateMutability": "view",
      "type": "function"
    },
    {
      "constant": true,
      "inputs": [],
      "name": "owner",
      "outputs": [
        {
          "name": "",
          "type": "address"
        }
      ],
      "payable": false,
      "stateMutability": "view",
      "type": "function"
    },
    {
      "inputs": [],
      "payable": false,
      "stateMutability": "nonpayable",
      "type": "constructor"
    },
    {
      "constant": true,
      "inputs": [],
      "name": "getNumberOfDogs",
      "outputs": [
        {
          "name": "",
          "type": "uint256"
        }
      ],
      "payable": false,
      "stateMutability": "view",
      "type": "function"
    },
    {
      "constant": false,
      "inputs": [
        {
          "name": "toSet",
          "type": "uint256"
        }
      ],
      "name": "setNumberOfDogs",
      "outputs": [],
      "payable": false,
      "stateMutability": "nonpayable",
      "type": "function"
    }
  ],
  "bytecode": "0x608060405234801561001057600080fd5b5033600560006101000a81548173ffffffffffffffffffffffffffffffffffffffff021916908373ffffffffffffffffffffffffffffffffffffffff160217905550610216806100616000396000f3fe608060405234801561001057600080fd5b5060043610610069576000357c01000000000000000000000000000000000000000000000000000000009004806314861b221461006e5780631680a5ed1461009c5780633072cf60146100ba5780638da5cb5b146100dc575b600080fd5b61009a6004803603602081101561008457600080fd5b8101908080359060200190929190505050610126565b005b6100a461016c565b6040518082815260200191505060405180910390f35b6100c26101b1565b604051808215151515815260200191505060405180910390f35b6100e46101c4565b604051808273ffffffffffffffffffffffffffffffffffffffff1673ffffffffffffffffffffffffffffffffffffffff16815260200191505060405180910390f35b80600060405180807f446f677300000000000000000000000000000000000000000000000000000000815250600401905090815260200160405180910390208190555050565b60008060405180807f446f6773000000000000000000000000000000000000000000000000000000008152506004019050908152602001604051809103902054905090565b600560149054906101000a900460ff1681565b600560009054906101000a900473ffffffffffffffffffffffffffffffffffffffff168156fea165627a7a7230582016e0dfa4cf0c4c093bef62e071e26c274bfe2206b20ab058fa4a360edf5d34200029",
  "source": "pragma solidity 0.5.2;\n\nimport \"./Storage.sol\";\n\ncontract Dogs is Storage {\n\n    modifier onlyOwner() {\n        require(msg.sender == owner);\n        _;\n    }\n\n    constructor() public {\n        owner = msg.sender;\n    }\n\n   function getNumberOfDogs() public view returns(uint256){\n       return _uintStorage[\"Dogs\"];\n   }\n   function setNumberOfDogs(uint256 toSet) public {\n       _uintStorage[\"Dogs\"] = toSet;\n   }\n}",
  "sourcePath": "/Users/alex/Library/Mobile Documents/com~apple~CloudDocs/UiA/DAT304V21 - Oppgave/smartcontract Security/upgradeableContract/contracts/Dogs.sol",
  "compiler": {
    "name": "solc",
    "version": "0.5.2+commit.1df8f40c.Emscripten.clang"
  },
  "schemaVersion": "3.0.16",
  "updatedAt": "2021-03-04T20:28:31.263Z",
  "devdoc": {
    "methods": {}
  },
  "userdoc": {
    "methods": {}
  }
}